:1000000010C02AC029C028C011C126C025C024C0E4
:1000100023C022C021C020C01FC01EC01DC01CC0E4
:100020001BC011241FBECFE5D2E0DEBFCDBF10E064
:10003000A0E6B0E0EAE2FDE002C005900D92AC3B24
:10004000B107D9F720E0ACEBB0E001C01D92AB3FA7
:10005000B207E1F7ECD367C6D3CF9091F9008BB329
:10006000892B8BBB08959091F1008BB3892B8BBBAF
:1000700008959091FA008BB3892B8BBB0895E19979
:10008000FECF1FBA8EBBE09A8DB30895E1E0F0E099
:10009000DF0102C0AA0FBB1F8A95E2F7CD01BA2F7C
:1000A000EAB3E82BEABB13BEE2E0E0BF12BEEBB35B
:1000B000E82BEBBB2038E5E23E074105510511F482
:1000C0002BE606C02115324C4140510511F428E0C1
:1000D00026BF21E023BF08B601FEFDCF97E098BF01
:1000E00012BE30E0282F2095A7E0FB01E30FF11DA1
:1000F00080818823A1F0880F990B926008B601FED9
:10010000FDCF4BB380FF02C04B2B01C042234BBB42
:10011000A8BF96958795009789F73F5FE6CF08B609
:1001200001FEFDCF13BE87E088BF08958B30910597
:1001300020F06AE070E016D402C061E070E082E076
:1001400080BF12BE81EA86BF83E083BF6150710920
:1001500038F008B601FEFDCF88B7876088BFF6CFBC
:1001600013BE08954F3F31F4FC0101962081211107
:10017000FBCF05C0FC01E40FF11D47FDFA95DB0143
:100180008D91882311F08193FBCF10820895CF9237
:10019000DF92EF92FF920F931F93CF93DF9397FF1E
:1001A00009C090958095709561957F4F8F4F9F4FB7
:1001B00011E001C010E0042FEA012AE0C22ED12C88
:1001C000E12CF12C2C2F201BFE01611571058105FE
:1001D000910541F0A7019601D9D3605D6993B901FA
:1001E000CA01F0CF112321F08DE280832F5F319679
:1001F0001082E21BF1092150822F922F981B981731
:1002000060F4EF01C90FD11D9881DF01A80FB11D66
:100210003C9138839C938150F0CFDF91CF911F9117
:100220000F91FF90EF90DF90CF9008951F920F9263
:100230000FB60F9211248F938091C0008F5F80932F
:10024000C00081B5806481BD8F910F900FBE0F906B
:100250001F90189537989BE090B9479A789495B776
:10026000977E906195BF1092C00096E091BD91B5C8
:10027000986591BD9091C000981740F495B7906231
:1002800095BF889595B79F7D95BFF4CF81B588615F
:1002900081BD11BC089598B38091C600892B9091BF
:1002A000F200892B88BB98B38091C6008095892382
:1002B00088BB98B38091F2008095892388BB08950C
:1002C00028B38091C6009091F200892B80958223FB
:1002D00088BB98B38091F200892B88BB98B380913A
:1002E000C600892B88BB089528E030E040E8909153
:1002F000C600582F542319F058B3952B03C058B398
:100300009095952398BB58B39091F200952B98BB8C
:1003100058B39091F2009095952398BB4695215043
:10032000310929F797B38091C6008095892387BB4F
:1003300098B38091C600892B88BB98B38091F20056
:10034000892B88BB96B38091C600982381E009F081
:1003500080E028B39091F2009095922398BB27B348
:100360009091C600922B97BB0895CF9321E030E087
:10037000A90102C0440F551F8A95E2F7CA014093B4
:10038000C60001C0220F6A95EAF72093F20097B3E6
:10039000292B282B27BB98B38091C600892B9091DD
:1003A000F200892B88BB77DF80E89EDFC82F88DFCB
:1003B0008C2FCF910895CF93C82F6DDF80E894DF05
:1003C000882329F08C2F90DF91E0811101C090E00B
:1003D000892FCF910895682F27B39091C6009095EB
:1003E000922397BB88B39091C600982B98BB28E0C6
:1003F00030E080E090E858B34091F200452B48BBD4
:1004000056B34091C600452309F0892B58B340915B
:10041000F2004095452348BB96952150310959F784
:10042000662359F027B39091C600922B97BB28B34F
:100430009091C6009095922398BB28B39091F200BA
:10044000922B98BB28B39091F2009095922398BB81
:1004500027B39091C600922B97BB0895CF9387EE58
:10046000AADF811102C080E00CC015DF81E83CDF0B
:100470008823C9F380E0AFDFC82F22DFC6FB8827BF
:1004800080F9CF910895CF93DF9305DF81E82CDFCA
:100490008823D9F381E09FDFC82F882369F081E0AA
:1004A0009ADFD82F81E097DF0BDF8C2F90E0982F19
:1004B0008827DC7F8D2B02C080E090E0DF91CF9118
:1004C000089583EF78DF882381F0DDDFBC0180E0D1
:1004D00090E030D322E538EB4FE25BE3B9D326E678
:1004E00036E64BE352E490D2089560E070E0CB0131
:1004F00008958111B2CD8091F9009BB38095892335
:100500008BBB08958111AFCD8091F1009BB3809595
:1005100089238BBB0895882329F09091C8008BB361
:10052000892B05C08091C8009BB3809589238BBB24
:10053000089581119ECD8091FA009BB38095892307
:100540008BBB089599B38091C700982381E009F48B
:1005500080E0819508950F931F93CF93DF93D82F59
:100560001092C50008E010E0C0E88D2F8C23D3DF87
:1005700080DDE8DF9091C5008C23982B9093C50017
:1005800080E0D7DFC6950150110979F7DF91CF914F
:100590001F910F9108950F931F93CF93DF9308E05E
:1005A00010E0C0E0D0E865DDCDDF8D23C82B80E012
:1005B000C0DFD69501501109B1F78C2FDF91CF9193
:1005C0001F910F9108950F931F93CF93DF93082FDF
:1005D000C8E0D0E010E8802F81239DDF4ADD80E075
:1005E000A8DF16952197B9F7DF91CF911F910F9151
:1005F0000895CF93C82F80E085DF8C2FACDFCBDF51
:10060000C82F31DD8C2FCF910895CF93DF93D82F52
:10061000C62F80E077DF8D2F80629DDF8C2FD3DFA8
:10062000DF91CF9120CDCF93C82F662321F0613089
:1006300021F088E003C080E201C080E0642F637095
:10064000660F682B86E0E1DF6C2F85E0CF91DDCF70
:10065000EF92FF920F931F93CF93DF93C82FD62F64
:10066000142FF22E80E04EDF8C2F8A6274DF8E2DE5
:10067000AADFC23040F4802FA6DF8F2DA4DF812FA8
:10068000A2DF8D2FA0DFEFDCC11115C080E03ADFC3
:1006900080E361DF8E2D97DF802F95DF8F2D93DF35
:1006A000812F91DF8D2F8FDFDF91CF911F910F91E0
:1006B000FF90EF90D8CCDF91CF911F910F91FF90D9
:1006C000EF900895CF93DF93D82FC1E16D2F8C2F3A
:1006D0009CDFCF5FC731D1F7DF91CF91089580E0E4
:1006E00011DF82EE38DFBFDC80E00CDF81EE33DF2C
:1006F000BACC60E787E089DFF2DF80E07ADF8C7FC9
:10070000682F626080E081DFA8DC8AE090E00ECD97
:1007100060E787E07ADFE3DF80E06BDF682F6C7FE4
:1007200080E073DF80E0E5DE8AE090E0FFCC80E0EF
:10073000E9DE8FEF10DF97DC8091C5000895F7DFC9
:1007400080720895F4DF807108950F931F93CF9303
:100750008C01CFDF8AE090E0E9DC80E0D3DE80EA44
:10076000FADEC0E0F801EC0FF11D8081CF5F8A3026
:1007700011F029DFF7CF27DFC03220F480E223DF3A
:10078000CF5FFACF70DCDBDFC82F882319F0C0DF22
:10079000C1E004C0D7DF8823B1F3BADF8C2FCF913B
:1007A0001F910F9108950F93E1E0F0E0DF0102C087
:1007B000AA0FBB1F8A95E2F7A093F900CF0101C0F1
:1007C000880F6A95EAF78093F100CF0101C0880F86
:1007D0004A95EAF78093C800CF0101C0880F2A9597
:1007E000EAF78093C70001C0EE0F0A95EAF7E0939D
:1007F000FA004091F9008091F1003091C8002091F9
:10080000FA009AB3842B832B822B892B8ABB80E03E
:1008100070DE29DC88EC90E089DC43E060E08AE56A
:1008200002DF6FEF84E0F1DE80E20F914BCF81E0D9
:1008300026DC81BF3798009A20E835E240E050E09E
:1008400060E670E085E022DC61E080E08EDD01E0C2
:1008500022E043E064E080E0A6DF43E060E08AE578
:10086000E2DE84E6E82E04E624E644E664E680E080
:10087000EFDE6FEF84E0C9DE80E224DF22DE20E0DD
:1008800030E048EC52E4E4D124D16093C10070938D
:10089000C2008093C3009093C40043EF50E077DC24
:1008A00040E063E770E089EC90E05CDC4FEF63EFE1
:1008B00070E089EC90E056DC4FEF63E970E089EC82
:1008C00090E050DC20E835E240E050E069EC70E078
:1008D00085E0DCDBC3DD882341F020E835E240E041
:1008E00050E066E870E085E0D1DB8091BC0090913B
:1008F000BD00A091BE00B091BF00BC01CD016F5FF3
:100900007F4F8F4F9F4F6093BC007093BD008093CB
:10091000BE009093BF0049EC50E039DC20E835E29E
:1009200040E050E065E970E085E0B0DB20E835E2CA
:1009300040E050E069EC70E085E0A8DB20E835E2BB
:1009400040E050E063E970E085E0A0DB85E082DC18
:1009500040E06AE970E089EC90E004DC89EC90E02A
:10096000F4DE8CCFAA1BBB1B51E107C0AA1FBB1F23
:10097000A617B70710F0A61BB70B881F991F5A952B
:10098000A9F780959095BC01CD010895052E97FBA0
:1009900016F400940FD057FD05D014D007FC02D0F8
:1009A00046F408C050954095309521953F4F4F4FE4
:1009B0005F4F089590958095709561957F4F8F4F0B
:1009C0009F4F0895A1E21A2EAA1BBB1BFD010DC06B
:1009D000AA1FBB1FEE1FFF1FA217B307E407F507EF
:1009E00020F0A21BB30BE40BF50B661F771F881FCB
:1009F000991F1A9469F760957095809590959B0161
:100A0000AC01BD01CF0108955058BB27AA270ED0D5
:100A1000E5C0D6D030F0DBD020F031F49F3F11F4A8
:100A20001EF4CBC00EF4E095E7FBC1C0E92FE7D080
:100A300080F3BA17620773078407950718F071F4FB
:100A40009EF5FFC00EF4E0950B2EBA2FA02D0B01E2
:100A5000B90190010C01CA01A0011124FF27591B03
:100A600099F0593F50F4503E68F11A16F040A22F09
:100A7000232F342F4427585FF3CF4695379527957A
:100A8000A795F0405395C9F77EF41F16BA0B620B79
:100A9000730B840BBAF09150A1F0FF0FBB1F661FC0
:100AA000771F881FC2F70EC0BA0F621F731F841F03
:100AB00048F4879577956795B795F7959E3F08F029
:100AC000B3CF9395880F08F09927EE0F97958795E8
:100AD000089504D06894B111B5C0089598D088F0F5
:100AE0009F5790F0B92F9927B751A0F0D1F0660F1A
:100AF000771F881F991F1AF0BA95C9F712C0B13035
:100B000081F09FD0B1E008959CC0672F782F88278F
:100B1000B85F39F0B93FCCF3869577956795B39573
:100B2000D9F73EF490958095709561957F4F8F4FE2
:100B30009F4F0895E89409C097FB3EF490958095E7
:100B4000709561957F4F8F4F9F4F9923A9F0F92F93
:100B500096E9BB279395F695879577956795B79511
:100B6000F111F8CFFAF4BB0F11F460FF1BC06F5FF7
:100B70007F4F8F4F9F4F16C0882311F096E911C009
:100B8000772321F09EE8872F762F05C0662371F02A
:100B900096E8862F70E060E02AF09A95660F771F3E
:100BA000881FDAF7880F9695879597F9089597F932
:100BB0009F6780E870E060E008959FEF80EC089503
:100BC00000240A941616170618060906089500242C
:100BD0000A9412161306140605060895092E0394A6
:100BE000000C11F4882352F0BB0F40F4BF2B11F41A
:100BF00060FF04C06F5F7F4F8F4F9F4F089557FD79
:100C00009058440F551F59F05F3F71F04795880F7A
:100C100097FB991F61F09F3F79F087950895121611
:100C200013061406551FF2CF4695F1DF08C01616BD
:100C300017061806991FF1CF86957105610508946E
:100C40000895E894BB2766277727CB0197F9089585
:100C50000AD0C4CFB5DF28F0BADF18F0952309F029
:100C6000A6CFABCFEFCFCBDFA8F39923D9F3552392
:100C7000C9F3950F50E0551FAA27EE27FF27BB2782
:100C800000240894679520F4E20FF31FB41F0A1E96
:100C9000220F331F441FAA1F6695A9F7779530F4DA
:100CA000F30FB41F0A1E121E08F46395330F441F7E
:100CB000AA1F221F769599F7879520F4B40F0A1E74
:100CC000121E631F440FAA1F221F331F8695A9F708
:100CD000862F712D602D11249F5750408AF0E1F02E
:100CE00088234AF0EE0FFF1FBB1F661F771F881F68
:100CF00091505040A9F79E3F510570F058CFA2CFB8
:100D00005F3FECF3983EDCF3869577956795B79552
:100D1000F795E7959F5FC1F7FE2B880F911D96957C
:0A0D2000879597F90895F894FFCF26
:100D2A00415454696E7938342073746172746564FD
:100D3A002E0A006874752074656D70657261747529
:100D4A007265203A20006C6F772062617474657254
:100D5A007920210A0056203D20006576656E742CA4
:100D6A00746F746F3D310A2020202020202020201B
:0C0D7A002020202020202020202000002D
:00000001FF
